{
  "contractName": "FakeProduct",
  "abi": [
    {
      "constant": true,
      "inputs": [],
      "name": "productCount",
      "outputs": [
        {
          "internalType": "uint256",
          "name": "",
          "type": "uint256"
        }
      ],
      "payable": false,
      "stateMutability": "view",
      "type": "function"
    },
    {
      "constant": true,
      "inputs": [],
      "name": "userCount",
      "outputs": [
        {
          "internalType": "uint256",
          "name": "",
          "type": "uint256"
        }
      ],
      "payable": false,
      "stateMutability": "view",
      "type": "function"
    },
    {
      "constant": false,
      "inputs": [
        {
          "internalType": "string",
          "name": "username",
          "type": "string"
        },
        {
          "internalType": "string",
          "name": "password",
          "type": "string"
        },
        {
          "internalType": "string",
          "name": "email",
          "type": "string"
        },
        {
          "internalType": "string",
          "name": "contact",
          "type": "string"
        }
      ],
      "name": "addUser",
      "outputs": [],
      "payable": false,
      "stateMutability": "nonpayable",
      "type": "function"
    },
    {
      "constant": true,
      "inputs": [
        {
          "internalType": "uint256",
          "name": "userId",
          "type": "uint256"
        }
      ],
      "name": "getUser",
      "outputs": [
        {
          "internalType": "string",
          "name": "username",
          "type": "string"
        },
        {
          "internalType": "string",
          "name": "password",
          "type": "string"
        },
        {
          "internalType": "string",
          "name": "email",
          "type": "string"
        },
        {
          "internalType": "string",
          "name": "contact",
          "type": "string"
        }
      ],
      "payable": false,
      "stateMutability": "view",
      "type": "function"
    },
    {
      "constant": true,
      "inputs": [],
      "name": "getUserCount",
      "outputs": [
        {
          "internalType": "uint256",
          "name": "",
          "type": "uint256"
        }
      ],
      "payable": false,
      "stateMutability": "view",
      "type": "function"
    },
    {
      "constant": false,
      "inputs": [
        {
          "internalType": "string",
          "name": "productName",
          "type": "string"
        },
        {
          "internalType": "string",
          "name": "productDesc",
          "type": "string"
        },
        {
          "internalType": "string",
          "name": "productPrice",
          "type": "string"
        },
        {
          "internalType": "string",
          "name": "barcodeSignature",
          "type": "string"
        }
      ],
      "name": "addProduct",
      "outputs": [],
      "payable": false,
      "stateMutability": "nonpayable",
      "type": "function"
    },
    {
      "constant": true,
      "inputs": [
        {
          "internalType": "uint256",
          "name": "productId",
          "type": "uint256"
        }
      ],
      "name": "getProduct",
      "outputs": [
        {
          "internalType": "string",
          "name": "productName",
          "type": "string"
        },
        {
          "internalType": "string",
          "name": "productDesc",
          "type": "string"
        },
        {
          "internalType": "string",
          "name": "productPrice",
          "type": "string"
        },
        {
          "internalType": "string",
          "name": "barcodeSignature",
          "type": "string"
        }
      ],
      "payable": false,
      "stateMutability": "view",
      "type": "function"
    },
    {
      "constant": true,
      "inputs": [],
      "name": "getProductCount",
      "outputs": [
        {
          "internalType": "uint256",
          "name": "",
          "type": "uint256"
        }
      ],
      "payable": false,
      "stateMutability": "view",
      "type": "function"
    },
    {
      "constant": true,
      "inputs": [
        {
          "internalType": "uint256",
          "name": "productId",
          "type": "uint256"
        },
        {
          "internalType": "string",
          "name": "inputSignature",
          "type": "string"
        }
      ],
      "name": "authenticate",
      "outputs": [
        {
          "internalType": "bool",
          "name": "",
          "type": "bool"
        }
      ],
      "payable": false,
      "stateMutability": "view",
      "type": "function"
    }
  ],
  "bytecode": "0x608060405234801561001057600080fd5b5061166a806100206000396000f3fe608060405234801561001057600080fd5b50600436106100935760003560e01c8063b0467deb11610066578063b0467deb14610431578063b5cb15f71461061c578063b9db15b41461063a578063e0f6ef8714610825578063fde74e811461084357610093565b806301cda3ac1461009857806307973ccf14610318578063156df73a146103365780634a348da914610413575b600080fd5b610316600480360360808110156100ae57600080fd5b81019080803590602001906401000000008111156100cb57600080fd5b8201836020820111156100dd57600080fd5b803590602001918460018302840111640100000000831117156100ff57600080fd5b91908080601f016020809104026020016040519081016040528093929190818152602001838380828437600081840152601f19601f8201169050808301925050505050505091929192908035906020019064010000000081111561016257600080fd5b82018360208201111561017457600080fd5b8035906020019184600183028401116401000000008311171561019657600080fd5b91908080601f016020809104026020016040519081016040528093929190818152602001838380828437600081840152601f19601f820116905080830192505050505050509192919290803590602001906401000000008111156101f957600080fd5b82018360208201111561020b57600080fd5b8035906020019184600183028401116401000000008311171561022d57600080fd5b91908080601f016020809104026020016040519081016040528093929190818152602001838380828437600081840152601f19601f8201169050808301925050505050505091929192908035906020019064010000000081111561029057600080fd5b8201836020820111156102a257600080fd5b803590602001918460018302840111640100000000831117156102c457600080fd5b91908080601f016020809104026020016040519081016040528093929190818152602001838380828437600081840152601f19601f820116905080830192505050505050509192919290505050610ac3565b005b610320610b87565b6040518082815260200191505060405180910390f35b6103f96004803603604081101561034c57600080fd5b81019080803590602001909291908035906020019064010000000081111561037357600080fd5b82018360208201111561038557600080fd5b803590602001918460018302840111640100000000831117156103a757600080fd5b91908080601f016020809104026020016040519081016040528093929190818152602001838380828437600081840152601f19601f820116905080830192505050505050509192919290505050610b8d565b604051808215151515815260200191505060405180910390f35b61041b610d2f565b6040518082815260200191505060405180910390f35b61045d6004803603602081101561044757600080fd5b8101908080359060200190929190505050610d39565b6040518080602001806020018060200180602001858103855289818151815260200191508051906020019080838360005b838110156104a957808201518184015260208101905061048e565b50505050905090810190601f1680156104d65780820380516001836020036101000a031916815260200191505b50858103845288818151815260200191508051906020019080838360005b8381101561050f5780820151818401526020810190506104f4565b50505050905090810190601f16801561053c5780820380516001836020036101000a031916815260200191505b50858103835287818151815260200191508051906020019080838360005b8381101561057557808201518184015260208101905061055a565b50505050905090810190601f1680156105a25780820380516001836020036101000a031916815260200191505b50858103825286818151815260200191508051906020019080838360005b838110156105db5780820151818401526020810190506105c0565b50505050905090810190601f1680156106085780820380516001836020036101000a031916815260200191505b509850505050505050505060405180910390f35b6106246110a2565b6040518082815260200191505060405180910390f35b6106666004803603602081101561065057600080fd5b81019080803590602001909291905050506110ac565b6040518080602001806020018060200180602001858103855289818151815260200191508051906020019080838360005b838110156106b2578082015181840152602081019050610697565b50505050905090810190601f1680156106df5780820380516001836020036101000a031916815260200191505b50858103845288818151815260200191508051906020019080838360005b838110156107185780820151818401526020810190506106fd565b50505050905090810190601f1680156107455780820380516001836020036101000a031916815260200191505b50858103835287818151815260200191508051906020019080838360005b8381101561077e578082015181840152602081019050610763565b50505050905090810190601f1680156107ab5780820380516001836020036101000a031916815260200191505b50858103825286818151815260200191508051906020019080838360005b838110156107e45780820151818401526020810190506107c9565b50505050905090810190601f1680156108115780820380516001836020036101000a031916815260200191505b509850505050505050505060405180910390f35b61082d611443565b6040518082815260200191505060405180910390f35b610ac16004803603608081101561085957600080fd5b810190808035906020019064010000000081111561087657600080fd5b82018360208201111561088857600080fd5b803590602001918460018302840111640100000000831117156108aa57600080fd5b91908080601f016020809104026020016040519081016040528093929190818152602001838380828437600081840152601f19601f8201169050808301925050505050505091929192908035906020019064010000000081111561090d57600080fd5b82018360208201111561091f57600080fd5b8035906020019184600183028401116401000000008311171561094157600080fd5b91908080601f016020809104026020016040519081016040528093929190818152602001838380828437600081840152601f19601f820116905080830192505050505050509192919290803590602001906401000000008111156109a457600080fd5b8201836020820111156109b657600080fd5b803590602001918460018302840111640100000000831117156109d857600080fd5b91908080601f016020809104026020016040519081016040528093929190818152602001838380828437600081840152601f19601f82011690508083019250505050505050919291929080359060200190640100000000811115610a3b57600080fd5b820183602082011115610a4d57600080fd5b80359060200191846001830284011164010000000083111715610a6f57600080fd5b91908080601f016020809104026020016040519081016040528093929190818152602001838380828437600081840152601f19601f820116905080830192505050505050509192919290505050611449565b005b60016000815480929190600101919050555060405180608001604052808581526020018481526020018381526020018281525060008060015481526020019081526020016000206000820151816000019080519060200190610b26929190611537565b506020820151816001019080519060200190610b43929190611537565b506040820151816002019080519060200190610b60929190611537565b506060820151816003019080519060200190610b7d929190611537565b5090505050505050565b60015481565b60006002600084815260200190815260200160002060040160009054906101000a900460ff16610c25576040517f08c379a00000000000000000000000000000000000000000000000000000000081526004018080602001828103825260118152602001807f50726f64756374206e6f7420666f756e6400000000000000000000000000000081525060200191505060405180910390fd5b816040516020018082805190602001908083835b60208310610c5c5780518252602082019150602081019050602083039250610c39565b6001836020036101000a03801982511681845116808217855250505050505090500191505060405160208183030381529060405280519060200120600260008581526020019081526020016000206003016040516020018082805460018160011615610100020316600290048015610d0b5780601f10610ce9576101008083540402835291820191610d0b565b820191906000526020600020905b815481529060010190602001808311610cf7575b50509150506040516020818303038152906040528051906020012014905092915050565b6000600354905090565b606080606080600085118015610d5157506001548511155b610dc3576040517f08c379a000000000000000000000000000000000000000000000000000000000815260040180806020018281038252600e8152602001807f55736572206e6f7420666f756e6400000000000000000000000000000000000081525060200191505060405180910390fd5b610dcb6115b7565b600080878152602001908152602001600020604051806080016040529081600082018054600181600116156101000203166002900480601f016020809104026020016040519081016040528092919081815260200182805460018160011615610100020316600290048015610e815780601f10610e5657610100808354040283529160200191610e81565b820191906000526020600020905b815481529060010190602001808311610e6457829003601f168201915b50505050508152602001600182018054600181600116156101000203166002900480601f016020809104026020016040519081016040528092919081815260200182805460018160011615610100020316600290048015610f235780601f10610ef857610100808354040283529160200191610f23565b820191906000526020600020905b815481529060010190602001808311610f0657829003601f168201915b50505050508152602001600282018054600181600116156101000203166002900480601f016020809104026020016040519081016040528092919081815260200182805460018160011615610100020316600290048015610fc55780601f10610f9a57610100808354040283529160200191610fc5565b820191906000526020600020905b815481529060010190602001808311610fa857829003601f168201915b50505050508152602001600382018054600181600116156101000203166002900480601f0160208091040260200160405190810160405280929190818152602001828054600181600116156101000203166002900480156110675780601f1061103c57610100808354040283529160200191611067565b820191906000526020600020905b81548152906001019060200180831161104a57829003601f168201915b505050505081525050905080600001518160200151826040015183606001518393508292508191508090509450945094509450509193509193565b6000600154905090565b6060806060806002600086815260200190815260200160002060040160009054906101000a900460ff16611148576040517f08c379a00000000000000000000000000000000000000000000000000000000081526004018080602001828103825260118152602001807f50726f64756374206e6f7420666f756e6400000000000000000000000000000081525060200191505060405180910390fd5b6111506115df565b600260008781526020019081526020016000206040518060a0016040529081600082018054600181600116156101000203166002900480601f0160208091040260200160405190810160405280929190818152602001828054600181600116156101000203166002900480156112075780601f106111dc57610100808354040283529160200191611207565b820191906000526020600020905b8154815290600101906020018083116111ea57829003601f168201915b50505050508152602001600182018054600181600116156101000203166002900480601f0160208091040260200160405190810160405280929190818152602001828054600181600116156101000203166002900480156112a95780601f1061127e576101008083540402835291602001916112a9565b820191906000526020600020905b81548152906001019060200180831161128c57829003601f168201915b50505050508152602001600282018054600181600116156101000203166002900480601f01602080910402602001604051908101604052809291908181526020018280546001816001161561010002031660029004801561134b5780601f106113205761010080835404028352916020019161134b565b820191906000526020600020905b81548152906001019060200180831161132e57829003601f168201915b50505050508152602001600382018054600181600116156101000203166002900480601f0160208091040260200160405190810160405280929190818152602001828054600181600116156101000203166002900480156113ed5780601f106113c2576101008083540402835291602001916113ed565b820191906000526020600020905b8154815290600101906020018083116113d057829003601f168201915b505050505081526020016004820160009054906101000a900460ff161515151581525050905080600001518160200151826040015183606001518393508292508191508090509450945094509450509193509193565b60035481565b6003600081548092919060010191905055506040518060a001604052808581526020018481526020018381526020018281526020016001151581525060026000600354815260200190815260200160002060008201518160000190805190602001906114b6929190611537565b5060208201518160010190805190602001906114d3929190611537565b5060408201518160020190805190602001906114f0929190611537565b50606082015181600301908051906020019061150d929190611537565b5060808201518160040160006101000a81548160ff02191690831515021790555090505050505050565b828054600181600116156101000203166002900490600052602060002090601f016020900481019282601f1061157857805160ff19168380011785556115a6565b828001600101855582156115a6579182015b828111156115a557825182559160200191906001019061158a565b5b5090506115b39190611610565b5090565b6040518060800160405280606081526020016060815260200160608152602001606081525090565b6040518060a00160405280606081526020016060815260200160608152602001606081526020016000151581525090565b61163291905b8082111561162e576000816000905550600101611616565b5090565b9056fea265627a7a723158203e58f43c2817c9dd49986b463c77f32d64aba8576943398a2b93b537b16984c964736f6c63430005100032",
  "source": "// SPDX-License-Identifier: MIT\npragma solidity ^0.5.0;\n\ncontract FakeProduct {\n\n    // ---- USER STRUCT ----\n    struct User {\n        string username;\n        string password;\n        string email;\n        string contact;\n    }\n\n    // ---- PRODUCT STRUCT ----\n    struct Product {\n        string productName;\n        string productDesc;\n        string productPrice;\n        string barcodeSignature;  // digital signature derived from barcode image\n        bool exists;\n    }\n\n    // ---- STORAGE ----\n    mapping(uint => User) private users;\n    uint public userCount;\n\n    mapping(uint => Product) private products;\n    uint public productCount;\n\n    // ==================== USER FUNCTIONS ====================\n\n    function addUser(\n        string memory username,\n        string memory password,\n        string memory email,\n        string memory contact\n    ) public {\n        userCount++;\n        users[userCount] = User(username, password, email, contact);\n    }\n\n    function getUser(uint userId)\n        public view\n        returns (\n            string memory username,\n            string memory password,\n            string memory email,\n            string memory contact\n        )\n    {\n        require(userId > 0 && userId <= userCount, \"User not found\");\n        User memory u = users[userId];\n        return (u.username, u.password, u.email, u.contact);\n    }\n\n    function getUserCount() public view returns (uint) {\n        return userCount;\n    }\n\n    // ==================== PRODUCT FUNCTIONS ====================\n\n    function addProduct(\n        string memory productName,\n        string memory productDesc,\n        string memory productPrice,\n        string memory barcodeSignature\n    ) public {\n        productCount++;\n        products[productCount] = Product(productName, productDesc, productPrice, barcodeSignature, true);\n    }\n\n    function getProduct(uint productId)\n        public view\n        returns (\n            string memory productName,\n            string memory productDesc,\n            string memory productPrice,\n            string memory barcodeSignature\n        )\n    {\n        require(products[productId].exists, \"Product not found\");\n        Product memory p = products[productId];\n        return (p.productName, p.productDesc, p.productPrice, p.barcodeSignature);\n    }\n\n    function getProductCount() public view returns (uint) {\n        return productCount;\n    }\n\n    // ==================== AUTHENTICATE BARCODE ====================\n    // Compare provided signature with stored signature for a product\n    function authenticate(uint productId, string memory inputSignature)\n        public view\n        returns (bool)\n    {\n        require(products[productId].exists, \"Product not found\");\n        return (keccak256(abi.encodePacked(products[productId].barcodeSignature))\n                == keccak256(abi.encodePacked(inputSignature)));\n    }\n}\n",
  "sourcePath": "C:\\Users\\pantech\\Downloads\\FakeProductBlockchain\\FakeProductBlockchain\\hello-eth\\contracts\\FakeProduct.sol",
  "compiler": {
    "name": "solc",
    "version": "0.5.16+commit.9c3226ce.Emscripten.clang"
  },
  "schemaVersion": "3.4.16",
  "updatedAt": "2026-02-28T17:27:20.712Z",
  "networkType": "ethereum",
  "devdoc": {
    "methods": {}
  },
  "userdoc": {
    "methods": {}
  }
}